S017000043616D70696E674C616D705F4D43552E7372656380
S11300000C9441000C9469000C9469000C946900F0
S11300100C9469000C9469000C9469000C946900B8
S11300200C9469000C9469000C9469000C946900A8
S11300300C9469000C9469000C9469000C94690098
S11300400C94A3000C9469000C9474040C94940410
S11300500C9469000C9469000C9469000C94690078
S11300600C9469000C946900BD02C102C502C90266
S1130070CD02D102D502E802FC02100324032A03B4
S11300802E0311241FBECFEFD8E0DEBFCDBF13E097
S1130090A0E0B1E0E4E2FAE002C005900D92A630DF
S11300A0B107D9F724E0A6E0B3E001C01D92A8355A
S11300B0B207E1F710E0C1E4D0E004C02197FE01EB
S11300C00E94D804C034D107C9F70E9454020C948A
S11300D010050C940000F8949091080389239091E2
S11300E0080398279093080378940895F8949091BE
S11300F00603892390910603982790930603789426
S11301000895F89490910903909589230E946B00B7
S11301100895F894909107038923909107039827F1
S113012090930703789408959091080389230E947B
S113013076000E946B00089590910803909589239E
S11301400E94760008951F920F920FB60F92112409
S11301502F933F934F938F939F9316BC29B1909104
S1130160090328702095292780910C038223809508
S113017080930C0390910B039223982790930B0385
S113018082238923909109039827909309039091DE
S11301900903209108039823922B9093080320913C
S11301A009034091070390E030E0209530958223C5
S11301B09323842B809307038091090383FD04C058
S11301C081E380930A0312C080910A03815019F0DD
S11301D080930A030BC081E080930A038091090392
S11301E0909106038870892B809306039F918F91C9
S11301F04F913F912F910F900FBE0F901F90189524
S11302000F931F93CF93DF93EC01E981F0E0EE0F9E
S1130210FF1FEA5FFE4F00811181E881F0E0EE0FDD
S1130220FF1FEA5FFE4F2081318140E050E063E030
S11302308BE193E00E941404EA81F0E0EE0FFF1FCB
S1130240EA5FFE4F00811181EB81F0E0EE0FFF1FAA
S1130250EA5FFE4F2081318140E050E062E08BE1B3
S113026093E00E941404DF91CF911F910F910895A0
S1130270F894682F70E0660F771F660F771F44E0CD
S113028050E082E091E00E94DE0482E091E00E946E
S113029000017894089588E00E948100882391F0F9
S11302A095B181E0892785B9809153038F5F8530AB
S11302B019F08093530302C01092530380915303A7
S11302C00E94380188E00E949400882309F000000D
S11302D088E00E949C00882309F4B8C08091010141
S11302E0882309F46DC0809153038130F9F020F024
S11302F0843009F460C033C0209102018091000170
S113030090E00197422F50E0841795071CF02F5F6F
S11303102093020120910301422F50E08417950796
S11303200CF449C02F5F2093030145C020910401C0
S11303308091000190E00197422F50E084179507C7
S11303401CF02F5F2093040120910501422F50E0FF
S11303508417950784F12F5F209305012CC0209109
S113036002018091000190E00197422F50E0841730
S113037095071CF02F5F2093020120910301422F67
S113038050E0841795071CF02F5F20930301209100
S11303900401422F50E0841795071CF02F5F20932F
S11303A0040120910501422F50E0841795071CF0A9
S11303B02F5F2093050182E091E00E94000146C076
S11303C080915303813099F018F08430D9F11EC024
S11303D080910201882319F0815080930201809159
S11303E00301882379F18150809303012BC080910C
S11303F00401882319F08150809304018091050140
S1130400882301F18150809305011CC08091020171
S1130410882319F08150809302018091030188237D
S113042019F081508093030180910401882319F00D
S113043081508093040180910501882319F0815033
S11304408093050182E091E00E94000188E00E940F
S11304508900882331F09091010181E089278093FC
S113046001010895CF93DF9300D000D0CDB7DEB75C
S1130470FC018181898382818A8383818B83848146
S11304808C83608170E0660F771F660F771F44E0EE
S113049050E0CE0101960E94EE040F900F900F9051
S11304A00F90DF91CF9108950E94390383E390E088
S11304B00E94610485E085BDEEE6F0E08081816004
S11304C08083209A289A5B9A809153030E94380172
S11304D078940EE013E0C7E1D3E00F2EF2E0EF2EA4
S11304E0F1E0FF2EF02D0E944B010E94CF048823DF
S11304F0D1F310921A031092190310921803109258
S11305000D03F8011192EC17FD07E1F78091180330
S11305108A3011F18091190390911A030A9741F4DA
S113052003C02A30310521F481E080930D03DBCF31
S11305300E94BE04809318032091190330911A037A
S1130540F901E25FFC4F80832F5F3F4F30931A0322
S1130550209319038A3029F780910D038111C3CFA9
S1130560D801EC918E2F90E08C30910508F0BBCF30
S1130570FC01EC5CFF4F0C94D804C8010E943202C9
S1130580B2CFC8010E943202AECFC8010E9432022B
S1130590AACFC8010E943202A6CFC8010E9432022B
S11305A0A2CFC8010E9432029ECFD8011196EC91CD
S11305B0D701EC93F0E0EE0FFF1FEA5FFE4F2081BE
S11305C0318141E063E08BE193E00E9442048BCFF0
S11305D0D8011196EC91D7011196EC93F0E0EE0F4F
S11305E0FF1FEA5FFE4F2081318142E063E08BE12F
S11305F093E00E94420477CFD8011196EC91D70181
S11306001296EC93F0E0EE0FFF1FEA5FFE4F20819D
S1130610318142E062E08BE193E00E94420463CFC7
S1130620D8011196EC91D7011396EC93F0E0EE0FFC
S1130630FF1FEA5FFE4F2081318141E062E08BE1E0
S113064093E00E9442044FCF60E08BE193E00E946C
S1130650540449CF80E00E94380145CF0F9301E054
S113066020E040E061E08BE193E00E9454030F91AD
S113067008958CE284B980E58CBD2A9A08952A985D
S1130680161617067CF4FC01680F791FDF019081B0
S11306909EBD0DB407FEFDCF9EB59C933196E61723
S11306A0F707A1F72A9A08950F93DC018C91807CB7
S11306B0856260FB86F940FB87F98C9311968C91D7
S11306C0119720FB80F900FB81F983709FEF13964B
S11306D09C931397886F11968C93119712969C9301
S11306E01297FD013496CD014C9611921192E817A0
S11306F0F907D9F70F910895CF93DF93AC01DC018B
S11307008C91982F990F990F86FB222720F930E0BE
S1130710220F331F292B87FB992790F9822F892BCE
S11307205C968C935C9711968C911197982F969563
S11307309695969512962C91622F63706295660F2A
S1130740607E692B70E081FBAA27A0F9B0E0002449
S1130750B695A7950794B695A7950794BA2FA02D9B
S1130760982F979599279795A92B82FBEE27E0F967
S1130770F0E0EE0FFF1FE295F295F07FFE27E07F99
S1130780FE27EA2BCB019595879595958795E82BC0
S1130790DA015D96EC935D97822F86958695139684
S11307A0EC9113972E2F21702295220F220F207C7B
S11307B0922F982B292F30E0C90195958795002415
S11307C0769567950794769567950794762F602DAF
S11307D0682B5E966C935E973695322F2227379559
S11307E02795E6952E2B5F962C935F97FA017C96BE
S11307F09196BA016C5F7F4F329790812181ED0110
S1130800219728839C931296E617F707A9F76CE1C2
S113081070E0CA014C960E943F03B5E3BA95F1F724
S11308200000DF91CF9108950F931F93613071F011
S113083028F0623099F06330C9F01FC0FC01558381
S11308404483378326831187008717C0FC015387AD
S1130850428735872487178706870FC0FC01518B91
S1130860408B338B228B158B048B07C0FC01578B79
S1130870468B318F208F138F028F0E947C031F9130
S11308800F91089570E0FB01EE0FFF1FE60FF71FB5
S1130890E40FF11D3296EE0FFF1FE80FF91F3183AD
S11308A020830E947C030895FC0134969C01245EFD
S11308B03F4F11921192E217F307D9F70E947C037C
S11308C008959093C5008093C40088E98093C10083
S11308D086E08093C2001092D6031092D703109240
S11308E054031092550308951F920F920FB60F925E
S11308F011248F939F93EF93FF938091C600E0910F
S1130900D703EF5FEF77E093D7039091D603F0E03E
S1130910E852FC4F8083FF91EF919F918F910F904C
S11309200FBE0F901F9018951F920F920FB60F9243
S113093011248F939F93EF93FF939091550380918C
S11309405403981769F0E0915403EF5FEF77E09355
S11309505403F0E0EA5AFC4F80818093C60005C03E
S1130960E1ECF0E080818F7D8083FF91EF919F9196
S11309708F910F900FBE0F901F9018959091D703F1
S11309808091D6039817D1F3E091D603EF5FEF7708
S1130990E093D603F0E0E852FC4F80810895209163
S11309A0D7039091D60381E0291301C080E0089514
S11309B0EE0FFF1F0590F491E02D0994DC01CB01AB
S11309C0FC01F999FECF06C0F2BDE1BDF89A31965B
S11309D000B40D9241505040B8F70895DC01A40FC3
S11309E0B51F4150504048F0CB01840F951F2E9104
S11309F00E94FF0441505040D0F70895262FF999E2
S1130A00FECF92BD81BDF89A019700B4021639F069
S1130A101FBA20BD0FB6F894FA9AF99A0FBE08953A
S1070A20F894FFCF74
S1130A24FF013232323200000100010001000100F2
S1130A3401000100010001000200020002000200A2
S1130A44020002000200020002000200020002008E
S1130A540300030003000300030003000300040075
S1130A64040004000400040004000500050005005B
S1130A74050005000600060006000600070007003E
S1130A840700080008000800090009000A000A0019
S1130A940A000B000B000C000C000D000D000E00EE
S1130AA40F000F00100011001100120013001400B5
S1130AB4150016001700180019001A001B001C006A
S1130AC41D001F002000210023002400260028000C
S1130AD429002B002D002F0031003400360038008B
S1130AE43B003D0040004300460049004C004F00D9
S1130AF4530057005B005F00630067006C007000E4
S1130B0475007B00800086008C00920098009F0092
S1130B14A600AD00B500BD00C500CE00D700E100BD
S1130B24EB00F50000010B011701240130013E0123
S1130B344C015B016A017A018B019C01AF01C20182
S1130B44D601EA01000217022E02470261027C0266
S1130B549802B502D402F402160339035D03830335
S1130B64AB03D50300042D045D048E04C204F8040D
S1130B7430056B05A805E8052B067106BA060607B9
S1130B845607A90700085B08B9081C098309EF097B
S1130B94600AD50A500BD10B560CE20C740D0D0EE1
S1130BA4AC0E520F0010B510731138120713DF1373
S1130BB4C014AB15A116A117AD18C419E91A1A1C4F
S1130BC4581DA51E00206B21E52271240E26BD2785
S1130BD48029562B412D422F5A318933D13533384C
S1130BE4B03A493D0040D542CB45E2481C4C7A4FCB
S1130BF4FF52AC56825A845EB3621267A26B66706B
S1130C046075927A0080AA85958BC3913798F59E76
S1130C14FEA558AD04B508BD66C524CE44D7CCE0C2
S1090C24C0EA25F5FFFF04
S9030000FC
