S017000043616D70696E674C616D705F4D43552E7372656380
S11300000C9434000C9446000C9446000C94460066
S11300100C9446000C9446000C9446000C94460044
S11300200C9446000C9446000C9446000C94460034
S11300300C9446000C9446000C9446000C94460024
S11300400C9480000C9446000C9439030C945903CE
S11300500C9446000C9446000C9446000C94460004
S11300600C9446000C94460011241FBECFEFD8E038
S1130070DEBFCDBF22E0A0E0B1E001C01D92AB31F4
S1130080B207E1F70E94DD000C94C3030C94000056
S1130090F8949091020189239091020198279093FA
S11300A0020178940895F894909100018923909125
S11300B0000198279093000178940895F894909102
S11300C00301909589230E9448000895F894909123
S11300D0010189239091010198279093010178945B
S11300E008959091020189230E9453000E944800C0
S11300F0089590910201909589230E9453000895D8
S11301001F920F920FB60F9211242F933F934F9388
S11301108F939F9316BC29B1909103012870209569
S1130120292780910601822380958093060190916E
S113013005019223982790930501822389239091A6
S113014003019827909303019091030120910201E8
S11301509823922B90930201209103014091010175
S113016090E030E02095309582239323842B809374
S113017001018091030183FD04C081E380930401A4
S113018012C080910401815019F0809304010BC0C6
S113019081E08093040180910301909100018870B3
S11301A0892B809300019F918F914F913F912F91C3
S11301B00F900FBE0F901F901895CF93DF93CDB77C
S11301C0DEB7EA970FB6F894DEBF0FBECDBF01E0ED
S11301D020E040E061E0CE0101960E9438020E94D6
S11301E01D0283E390E00E94260385E085BDEEE6D0
S11301F0F0E0808181608083209A289A5B9A00E0F5
S113020010E02FEF30E04FEF50E062E0CE010196B6
S11302100E94F8022FEF30E04FEF50E063E0CE0190
S113022001960E94F8027894512C442443942FEFB1
S113023030E03AAF29AF66246A94712C88248A94FA
S1130240912CAA24AA94B12C33243394212C0F2E5C
S1130250FDE0CF2EF1E0DF2EF02D0F2EF6E1EF2E94
S1130260F1E0FF2EF02D88E00E945E00882341F02B
S113027085B1832585B9539433E0531201C0522CC0
S113028088E00E947100882309F0000088E00E9441
S11302907900882309F46CC04420C9F181E0A816D0
S11302A08FEFB80608F064C091E089169FEF9906B5
S11302B008F05EC021E062162FEF720608F058C005
S11302C089AD9AAD81309F4F08F052C03FEFA30E25
S11302D0B11C8FEF880E911C9FEF690E711C29AD24
S11302E03AAD21503F4F3AAF29AF00E010E09401FE
S11302F0A50163E0CE0101960E94F80229AD3AAD52
S1130300A30162E0CE0101960E94F80231C03FEFE2
S1130310A316B10468F18FEF8816910448F19FEF9A
S11303206916710428F129AD3AAD2F3F310500F16A
S11303303FEFA31AB1088FEF881A91089FEF691A4B
S1130340710829AD3AAD2F5F31093AAF29AF00E00A
S113035010E09401A50163E0CE0101960E94F80229
S113036029AD3AADA30162E0CE0101960E94F802E4
S113037088E00E946600882309F447C0432445C0EE
S11303801192EE15FF05E1F752C00E948303482F36
S113039050E050930A0140930901209107013091E4
S11303A00801F901E35FFE4F80832F5F3F4F3093D5
S11303B00801209307014A30510539F7F901E35F39
S11303C0FE4F1082C6010E949D0321E031E0829F0E
S11303D0A001839F500D929F500D112450930C0146
S11303E040930B018A019A0163E0CE0101960E94B9
S11303F0F80240910B0150910C018A019A0162E0CC
S1130400CE0101960E94F8022ECF0E949403882305
S113041009F429CFF601B4CF0E9483031092080196
S11304201092070110920A0110920901AECF0E94A6
S11304308303813609F017CFEFCF8CE284B980E5CE
S11304408CBD2A9A08952A98161617067CF4FC0186
S1130450680F791FDF0190819EBD0DB407FEFDCFAB
S11304609EB59C933196E617F707A1F72A9A08954B
S11304700F93DC018C91807C856260FB86F940FBE4
S113048087F98C9311968C91119720FB80F900FBCE
S113049081F983709FEF13969C931397886F11963D
S11304A08C93119712969C931297FD013496CD016B
S11304B04C9611921192E817F907D9F70F91089504
S11304C0CF93DF93AC01DC018C91982F990F990F96
S11304D086FB222720F930E0220F331F292B87FBCC
S11304E0992790F9822F892B5C968C935C971196AF
S11304F08C911197982F96959695969512962C9186
S1130500622F63706295660F607E692B70E081FBD9
S1130510AA27A0F9B0E00024B695A7950794B6954C
S1130520A7950794BA2FA02D982F9795992797955B
S1130530A92B82FBEE27E0F9F0E0EE0FFF1FE29516
S1130540F295F07FFE27E07FFE27EA2BCB019595FD
S1130550879595958795E82BDA015D96EC935D97E1
S1130560822F869586951396EC9113972E2F2170E2
S11305702295220F220F207C922F982B292F30E0D6
S1130580C901959587950024769567950794769586
S113059067950794762F602D682B5E966C935E9713
S11305A03695322F222737952795E6952E2B5F9681
S11305B02C935F97FA017C969196BA016C5F7F4FFA
S11305C0329790812181ED01219728839C93129683
S11305D0E617F707A9F76CE170E0CA014C960E9490
S11305E02302B5E3BA95F1F70000DF91CF910895A6
S11305F00F931F93613071F028F0623099F06330EB
S1130600C9F01FC0FC0115830483378326835187F7
S1130610408717C0FC0113870287358724875787D3
S113062046870FC0FC01118B008B338B228B558BBB
S1130630448B07C0FC01178B068B318F208F538F9F
S1130640428F0E9460021F910F9108959093C500FC
S11306508093C40088E98093C10086E08093C2003F
S11306601092990110929A01109217011092180198
S113067008951F920F920FB60F9211248F939F9398
S1130680EF93FF938091C600E0919A01EF5FEF77BB
S1130690E0939A0190919901F0E0E556FE4F808332
S11306A0FF91EF919F918F910F900FBE0F901F902C
S11306B018951F920F920FB60F9211248F939F9348
S11306C0EF93FF939091180180911701981769F0A7
S11306D0E0911701EF5FEF77E0931701F0E0E75E39
S11306E0FE4F80818093C60005C0E1ECF0E080817C
S11306F08F7D8083FF91EF919F918F910F900FBE1B
S11307000F901F90189590919A01809199019817D4
S1130710D1F3E0919901EF5FEF77E0939901F0E075
S1130720E556FE4F8081089520919A019091990198
S113073081E0291301C080E00895FC0188279927EE
S1130740E89421912032E9F3293010F02E30C8F3D7
S11307502B3241F02D3239F4689404C00E94BB035B
S1130760820F911D219120532A30C0F31EF49095DD
S113077081959F4F08957AE0979F902D879F802DB4
S10D0780910D11240895F894FFCFA1
S9030000FC
