S017000043616D70696E674C616D705F4D43552E7372656380
S11300000C9435000C945D000C945D000C945D0020
S11300100C945D000C945D000C945D000C945D00E8
S11300200C945D000C945D000C945D000C945D00D8
S11300300C945D000C945D000C945D000C945D00C8
S11300400C9497000C945D000C9466030C94860346
S11300500C945D000C945D000C945D000C945D00A8
S11300600C945D000C945D003F0211241FBECFEF81
S1130070D8E0DEBFCDBF11E0A0E0B1E0E0E1F8E000
S113008002C005900D92AA30B107D9F722E0AAE088
S1130090B1E001C01D92AE35B207E1F710E0C5E34F
S11300A0D0E004C02197FE010E94CA03C433D107E3
S11300B0C9F70E94C5010C9406040C940000F8943E
S11300C090910C01892390910C01982790930C0135
S11300D078940895F89490910A01892390910A01E3
S11300E0982790930A0178940895F89490910D01BB
S11300F0909589230E945F000895F89490910B01D4
S1130100892390910B01982790930B01789408957B
S113011090910C0189230E946A000E945F00089557
S113012090910C01909589230E946A0008951F9272
S11301300F920FB60F9211242F933F934F938F93E7
S11301409F9316BC29B190910D0128702095292701
S113015080911001822380958093100190910F016A
S11301609223982790930F018223892390910D0164
S1130170982790930D0190910D0120910C019823E3
S1130180922B90930C0120910D0140910B0190E072
S113019030E02095309582239323842B80930B01A8
S11301A080910D0183FD04C081E380930E0112C090
S11301B080910E01815019F080930E010BC081E0F3
S11301C080930E0180910D0190910A018870892B12
S11301D080930A019F918F914F913F912F910F909E
S11301E00FBE0F901F9018950F931F93CF93DF931B
S11301F0EC012A813B814881598100E010E063E0F1
S113020081E291E00E9425032E813F814C815D8132
S113021062E081E291E00E942503DF91CF911F917A
S11302200F910895F894682F70E0660F771F660F9A
S1130230771F660F771F48E050E081E091E00E944D
S1130240F60381E091E00E94F4007894089588E038
S11302500E947500882391F095B181E0892785B9C2
S1130260809159018F5F853019F08093590102C044
S113027010925901809159010E94120188E00E9454
S11302808800882309F0000088E00E9490008823F9
S113029009F46FC0809100018823D1F1809101019C
S11302A09091020181302FEF920708F062C02091F3
S11302B003013091040121304FEF340708F059C095
S11302C0409105015091060141306FEF560708F047
S11302D050C060910701709108016130EFEF7E0713
S11302E008F047C0E1E0F1E081509F4F91838083A3
S11302F021503F4F3383228341505F4F55834483C2
S113030061507F4F77836683CF010E94F40031C030
S113031080910101909102018F3F910550F120914C
S11303200301309104012F3F310518F1409105017B
S1130330509106014F3F5105E0F060910701709123
S113034008016F3F7105A8F0E1E0F1E08F5F9109CA
S1130350918380832F5F3109338322834F5F510957
S1130360558344836F5F710977836683CF010E944D
S1130370F40088E00E947D00882331F09091000110
S113038081E089278093000108950E944A0283E353
S113039090E00E94530385E085BDEEE6F0E08081A5
S11303A081608083209A289A5B9A809159010E94E7
S11303B0120178940F2EF7E1EF2EF1E0FF2EF02DCD
S11303C0C0E2D1E0AE2CBF2CCC24C394DC2C0E9420
S11303D027010E94C1038823D1F3EA2DFB2D11923A
S11303E0EC17FD07E1F70E94B003813681F70E9404
S11303F0B003109212011092110110921401109284
S113040013010E94B003482F50E05093140140930D
S113041013012091110130911201F901E95EFE4F9F
S113042080832F5F3F4F30931201209311014A3094
S1130430510539F7F901E95EFE4F1082C7010E94A8
S1130440D0038C9DA0018D9D500D9C9D500D1124B9
S113045050931601409315018A019A0163E081E2E9
S113046091E00E94250340911501509116018A01E3
S11304709A0162E081E291E00E942503A8CF0F93E4
S113048001E020E040E061E081E291E00E94650249
S11304900F9108958CE284B980E58CBD2A9A089561
S11304A02A98161617067CF4FC01680F791FDF01E1
S11304B090819EBD0DB407FEFDCF9EB59C933196F1
S11304C0E617F707A1F72A9A08950F93DC018C9198
S11304D0807C856260FB86F940FB87F98C931196DA
S11304E08C91119720FB80F900FB81F983709FEFB9
S11304F013969C931397886F11968C931197129669
S11305009C931297FD013496CD014C961192119251
S1130510E817F907D9F70F910895CF93DF93AC014A
S1130520DC018C91982F990F990F86FB222720F9D3
S113053030E0220F331F292B87FB992790F9822F54
S1130540892B5C968C935C9711968C911197982FBC
S113055096959695969512962C91622F6370629556
S1130560660F607E692B70E081FBAA27A0F9B0E0DA
S11305700024B695A7950794B695A7950794BA2F26
S1130580A02D982F979599279795A92B82FBEE2755
S1130590E0F9F0E0EE0FFF1FE295F295F07FFE2701
S11305A0E07FFE27EA2BCB01959587959595879556
S11305B0E82BDA015D96EC935D97822F86958695FC
S11305C01396EC9113972E2F21702295220F220F50
S11305D0207C922F982B292F30E0C901959587957F
S11305E00024769567950794769567950794762FFA
S11305F0602D682B5E966C935E973695322F22277A
S113060037952795E6952E2B5F962C935F97FA01E5
S11306107C969196BA016C5F7F4F329790812181CD
S1130620ED01219728839C931296E617F707A9F703
S11306306CE170E0CA014C960E945002B5E3BA9591
S1130640F1F70000DF91CF9108950F931F9361306C
S113065071F028F0623099F06330C9F01FC0FC01DA
S113066015830483378326835187408717C0FC0191
S11306701387028735872487578746870FC0FC0175
S1130680118B008B338B228B558B448B07C0FC0161
S1130690178B068B318F208F538F428F0E948D02D0
S11306A01F910F9108959093C5008093C40088E929
S11306B08093C10086E08093C2001092DC01109206
S11306C0DD0110925A0110925B0108951F920F925E
S11306D00FB60F9211248F939F93EF93FF93809102
S11306E0C600E091DD01EF5FEF77E093DD019091CB
S11306F0DC01F0E0E252FE4F8083FF91EF919F9185
S11307008F910F900FBE0F901F9018951F920F920C
S11307100FB60F9211248F939F93EF93FF939091B1
S11307205B0180915A01981769F0E0915A01EF5FDB
S1130730EF77E0935A01F0E0E45AFE4F8081809312
S1130740C60005C0E1ECF0E080818F7D8083FF91DD
S1130750EF919F918F910F900FBE0F901F9018955E
S11307609091DD018091DC019817D1F3E091DC01D7
S1130770EF5FEF77E093DC01F0E0E252FE4F80811F
S113078008952091DD019091DC0181E0291301C0DD
S113079080E00895EE0FFF1F0590F491E02D099479
S11307A0FC0188279927E89421912032E9F3293024
S11307B010F02E30C8F32B3241F02D3239F4689406
S11307C004C00E94EE03820F911D219120532A3010
S11307D0C0F31EF4909581959F4F08957AE0979FFA
S11307E0902D879F802D910D11240895DC01CB015C
S11307F0FC01F999FECF06C0F2BDE1BDF89A31962D
S113080000B40D9241505040B8F70895F894FFCFCA
S10D081001FF00FF00FF00FF0000DD
S9030000FC
