:100000000C9435000C945D000C945D000C945D0024
:100010000C945D000C945D000C945D000C945D00EC
:100020000C945D000C945D000C945D000C945D00DC
:100030000C945D000C945D000C945D000C945D00CC
:100040000C9497000C945D000C945D030C947D035C
:100050000C945D000C945D000C945D000C945D00AC
:100060000C945D000C945D00360211241FBECFEF8E
:10007000D8E0DEBFCDBF13E0A0E0B1E0EEEFF7E0E7
:1000800002C005900D92A630B107D9F724E0A6E092
:10009000B3E001C01D92AA35B207E1F710E0C5E355
:1000A000D0E004C02197FE010E94C103C433D107F0
:1000B000C9F70E94BC010C94FD030C940000F89455
:1000C000909108038923909108039827909308033F
:1000D00078940895F89490910603892390910603EB
:1000E00098279093060378940895F89490910903C3
:1000F000909589230E945F000895F89490910703DA
:100100008923909107039827909307037894089583
:100110009091080389230E946A000E945F0008955D
:1001200090910803909589230E946A0008951F9278
:100130000F920FB60F9211242F933F934F938F93EB
:100140009F9316BC29B19091090328702095292707
:1001500080910C038223809580930C0390910B0374
:100160009223982790930B0382238923909109036C
:1001700098279093090390910903209108039823ED
:10018000922B90930803209109034091070390E07C
:1001900030E02095309582239323842B80930703AE
:1001A0008091090383FD04C081E380930A0312C098
:1001B00080910A03815019F080930A030BC081E0FB
:1001C00080930A0380910903909106038870892B1C
:1001D000809306039F918F914F913F912F910F90A4
:1001E0000FBE0F901F9018950F931F93CF93DF931F
:1001F000EC01E981F0E0EE0FFF1FEA5FFE4F208186
:100200003181E881F0E0EE0FFF1FEA5FFE4F408191
:10021000518100E010E063E08DE193E00E941C0357
:10022000EB81F0E0EE0FFF1FEA5FFE4F208131818E
:10023000EA81F0E0EE0FFF1FEA5FFE4F408151813F
:1002400062E08DE193E00E941C03DF91CF911F914A
:100250000F910895F894682F70E0660F771F660F6E
:10026000771F44E050E082E091E00E94ED0382E0DD
:1002700091E00E94F4007894089588E00E9475004F
:10028000882391F095B181E0892785B98091550344
:100290008F5F853019F08093550302C0109255038B
:1002A000809155030E942A0188E00E9488008823DB
:1002B00009F0000088E00E949000882309F450C0F3
:1002C00080910101882379F1209102018091000140
:1002D00090E00197422F50E0841795070CF440C03E
:1002E00030910301432F50E084179507CCF14091E2
:1002F0000401642F70E08617970794F1509105016F
:10030000652F70E0861797075CF1E2E0F1E02F5F60
:1003100020833F5F31834F5F42835F5F5383CF0111
:100320000E94F4001DC0809102018823C9F09091C1
:1003300003019923A9F020910401222389F030912F
:100340000501332369F0E2E0F1E0815080839150B0
:1003500091832150228331503383CF010E94F400D6
:1003600088E00E947D00882331F09091010181E0B6
:1003700089278093010108950E94410283E390E060
:100380000E944A0385E085BDEEE6F0E08081816051
:100390008083209A289A5B9A809155030E942A01B3
:1003A00078940F2EF3E1EF2EF3E0FF2EF02DCCE149
:1003B000D3E0AE2CBF2CCC24C394DC2C0E943D0196
:1003C0000E94B8038823D1F3EA2DFB2D1192EC177C
:1003D000FD07E1F70E94A703813681F70E94A7037A
:1003E00010920E0310920D031092100310920F033F
:1003F0000E94A703482F50E05093100340930F032F
:1004000020910D0330910E03F901ED5EFC4F8083C6
:100410002F5F3F4F30930E0320930D034A30510559
:1004200039F7F901ED5EFC4F1082C7010E94C70346
:100430008C9DA0018D9D500D9C9D500D11245093BD
:100440001203409311038A019A0163E08DE193E066
:100450000E941C0340911103509112038A019A01DA
:1004600062E08DE193E00E941C03A8CF0F9301E0AE
:1004700020E040E061E08DE193E00E945C020F919A
:1004800008958CE284B980E58CBD2A9A08952A9853
:10049000161617067CF4FC01680F791FDF019081A6
:1004A0009EBD0DB407FEFDCF9EB59C933196E61719
:1004B000F707A1F72A9A08950F93DC018C91807CAD
:1004C000856260FB86F940FB87F98C9311968C91CD
:1004D000119720FB80F900FB81F983709FEF139641
:1004E0009C931397886F11968C93119712969C93F7
:1004F0001297FD013496CD014C9611921192E81796
:10050000F907D9F70F910895CF93DF93AC01DC0180
:100510008C91982F990F990F86FB222720F930E0B4
:10052000220F331F292B87FB992790F9822F892BC4
:100530005C968C935C9711968C911197982F969559
:100540009695969512962C91622F63706295660F20
:10055000607E692B70E081FBAA27A0F9B0E000243F
:10056000B695A7950794B695A7950794BA2FA02D91
:10057000982F979599279795A92B82FBEE27E0F95D
:10058000F0E0EE0FFF1FE295F295F07FFE27E07F8F
:10059000FE27EA2BCB019595879595958795E82BB6
:1005A000DA015D96EC935D97822F8695869513967A
:1005B000EC9113972E2F21702295220F220F207C71
:1005C000922F982B292F30E0C9019595879500240B
:1005D000769567950794769567950794762F602DA5
:1005E000682B5E966C935E973695322F222737954F
:1005F0002795E6952E2B5F962C935F97FA017C96B4
:100600009196BA016C5F7F4F329790812181ED0105
:10061000219728839C931296E617F707A9F76CE1B8
:1006200070E0CA014C960E944702B5E3BA95F1F713
:100630000000DF91CF9108950F931F93613071F007
:1006400028F0623099F06330C9F01FC0FC011583B7
:100650000483378326835187408717C0FC011387A3
:10066000028735872487578746870FC0FC01118B87
:10067000008B338B228B558B448B07C0FC01178B6F
:10068000068B318F208F538F428F0E9484021F91DF
:100690000F9108959093C5008093C40088E98093DA
:1006A000C10086E08093C2001092D8031092D90353
:1006B000109256031092570308951F920F920FB68F
:1006C0000F9211248F939F93EF93FF938091C60015
:1006D000E091D903EF5FEF77E093D9039091D803CE
:1006E000F0E0E652FC4F8083FF91EF919F918F9154
:1006F0000F900FBE0F901F9018951F920F920FB67C
:100700000F9211248F939F93EF93FF939091570330
:1007100080915603981769F0E0915603EF5FEF77E9
:10072000E0935603F0E0E85AFC4F80818093C600C6
:1007300005C0E1ECF0E080818F7D8083FF91EF9137
:100740009F918F910F900FBE0F901F9018959091D1
:10075000D9038091D8039817D1F3E091D803EF5FC4
:10076000EF77E093D803F0E0E652FC4F80810895E4
:100770002091D9039091D80381E0291301C080E032
:100780000895EE0FFF1F0590F491E02D0994FC01F0
:1007900088279927E89421912032E9F3293010F035
:1007A0002E30C8F32B3241F02D3239F4689404C056
:1007B0000E94E503820F911D219120532A30C0F33E
:1007C0001EF4909581959F4F08957AE0979F902D04
:1007D000879F802D910D11240895DC01CB01FC0130
:1007E000F999FECF06C0F2BDE1BDF89A319600B48A
:0E07F0000D9241505040B8F70895F894FFCF95
:1007FE00FF0132323232000001000100010001001F
:10080E0001000100010001000200020002000200CE
:10081E0002000200020002000200020002000200BA
:10082E0003000300030003000300030003000400A1
:10083E000400040004000400040005000500050087
:10084E00050005000600060006000600070007006A
:10085E000700080008000800090009000A000A0045
:10086E000A000B000B000C000C000D000D000E001A
:10087E000F000F00100011001100120013001400E1
:10088E00150016001700180019001A001B001C0096
:10089E001D001F0020002100230024002600280038
:1008AE0029002B002D002F003100340036003800B7
:1008BE003B003D0040004300460049004C004F0005
:1008CE00530057005B005F00630067006C00700010
:1008DE0075007B00800086008C00920098009F00BF
:1008EE00A600AD00B500BD00C500CE00D700E100EA
:1008FE00EB00F50000010B011701240130013E0150
:10090E004C015B016A017A018B019C01AF01C201AE
:10091E00D601EA01000217022E02470261027C0292
:10092E009802B502D402F402160339035D03830361
:10093E00AB03D50300042D045D048E04C204F80439
:10094E0030056B05A805E8052B067106BA060607E5
:10095E005607A90700085B08B9081C098309EF09A7
:10096E00600AD60A500BD10B560CE20C740D0D0E0C
:10097E00AC0E520F0010B510731138120713DF139F
:10098E00C014AB15A116A117AD18C519E91A1A1C7A
:10099E00581DA51E00206B21E52271240E26BD27B1
:1009AE008029562B412D422F5A318933D135333878
:1009BE00B03A493D0040D542CB45E2481C4C7B4FF6
:1009CE00FF52AC56825A845EB4621267A26B667096
:1009DE006075937A0080AB85968BC4913898F59E9E
:1009EE00FFA558AD05B509BD67C525CE45D7CDE0E8
:0609FE00C1EA25F5FFFF30
:00000001FF
